:04000005080074B1CA
:020000040800F2
:1000000000C00020C11000081111000811110008E3
:100010001111000811110008111100080000000062
:1000200000000000000000000000000011110008A6
:100030001111000800000000111100081111000842
:100040001111000811110008111100081111000808
:100050001111000811110008390D000811110008D4
:1000600011110008111100081111000811110008E8
:1000700011110008111100081111000811110008D8
:1000800011110008111100081111000811110008C8
:1000900011110008111100081111000811110008B8
:1000A00011110008111100081111000811110008A8
:1000B00011110008000000000000000011110008EC
:1000C00011110008000000000000000011110008DC
:1000D00000000000111100081111000800000000CC
:1000E00011110008111100080000000000000000BC
:1000F0000000000000000000000000000000000000
:1001000000000000000000000000000011110008C5
:100110000000000000000000A10C00081111000800
:100120001111000811110008111100081111000827
:100130001111000800000000000000000000000095
:100140001111000811110008111100087D0C0008A0
:1001500011110008111100081111000811110008F7
:100160001111000811110008111100080000000011
:10017000111100081111000800000000000000002B
:1001800011110008111100081111000800000000F1
:1001900080B4064A064B936000AF1B6883F308885F
:1001A000044B1B68BD465DF8047B184700ED00E07A
:1001B000005000080450000870B590B000F0DAFB61
:1001C000012000F003FC00F013FE00F05DFD04468A
:1001D00000F0EAFD002859D1012600F0C3F80028FC
:1001E0005CD100F051FD344BD3F8942092000546C9
:1001F00055D5D3F8942042F40002C3F8942000F0BF
:100200002FFA00F0B7FB002000F0E0FB00F042FB0B
:1002100000F014FC00F00CFE03F094F940220021E1
:10022000684603F021FC254E00F02EFD001B05283A
:1002300004D900F037F900F027FD044600F01AFE5B
:10024000684600F0FDFD002807DD684603F028FA47
:1002500040220021684603F007FC03F075F933786B
:1002600023B1FA2000F0A6FD00F0B0FD00F09CFDE7
:1002700010B900F009FD054600F006FD41F2883393
:10028000401B9842D0D900F0F7FDCDE700F0FCFC10
:10029000001BB0F5FA6F9BD900269EE7002500F001
:1002A00059F80028ABD016B1FFF772FFA7E700F0AE
:1002B00059F80028F8D1A2E70010024050010020B0
:1002C000054B002210B51A600A24E0B2013400F098
:1002D00019FC6C2CF9D110BD5801002010B50C4C44
:1002E000ADF5006D21464FF40062684603F0A2FBB5
:1002F00000236B20CDF8FC3700F004FC4FF40062C3
:100300006946204600F044FC0DF5006D10BD00BFAD
:100310000058030800B50D4B1B68ADF6040D8BB1FA
:100320004FF400620A49684603F084FB00236B2007
:10033000CDF8F83700F0E6FB4FF400626946044858
:1003400000F026FC0DF6040D5DF804FBF85F0308D1
:1003500000580308024B1868B0FA80F04009704753
:10036000F85F0308024B1868B0FA80F04009704744
:10037000FC5F03082DE9F7430A7A91F809800938F0
:1003800048EA0228012340450C468DF807307DDD00
:100390000B78403B072B05D8DFE803F00839373FDF
:1003A000423B7259012003B0BDE8F083D1F80150FF
:1003B000374A25F07F4545F0006505F17843A3F500
:1003C000A043934217D8334F08EB0509B94512D81B
:1003D000314E33680BB13B683BB9FFF771FF3B68A7
:1003E000012030600BB903F0DFFA2C4B1A684A4544
:1003F00003D9002333603020D5E7424604F10A01D7
:100400002846C3F8009000F0C3FB0020CBE7FFF7BD
:1004100081FF234B01221A70F7E7FFF751FFF4E742
:100420001D4B00241C600121042301250DF1070050
:100430008DF8073002F076FE29460DF107008DF8A1
:10044000075002F06FFE05238DF8073010E08B7A1D
:10045000CD2B13D1CB7ADE2B10D10B7BBA2B0DD148
:100460004B7BAA2B0AD10024FFF738FF8DF80740F9
:1004700001210DF1070002F055FEC6E72723E3E74F
:10048000012000F0F7FA00F0F7FCBEE703208AE74E
:10049000F70F0300F85F0308540100205801002003
:1004A000500100200C490D480A6803688AB1013BDD
:1004B0000360581E272882BFB2FA82F252090A60EE
:1004C0000A2203EB430053431B0443EA002000F0DD
:1004D0009BBB0133ECE700BF5C010020040000205F
:1004E000024A13680133184410607047000000206E
:1004F000024BD868C0F30220704700BF00ED00E057
:10050000034AD2F8943043F00103C2F894307047A4
:1005100000100240024BD3F89400C0F34000704733
:1005200000100240024A136843F001031360704751
:1005300000100240024B1868C0F34000704700BF33
:1005400000100240024A136843F00803136070472A
:1005500000100240034A136823F0F00318431060B0
:10056000704700BF00100240034A936823F0030362
:1005700018439060704700BF00100240034A936820
:1005800023F4605318439060704700BF001002408E
:10059000044AD2F8883023F040631843C2F8880038
:1005A000704700BF00100240034A136823F007039E
:1005B00018431060704700BF00200240034A1368D0
:1005C00023F4C06318431060704700BF0070004000
:1005D000054AD16C0143D164D36C82B003400193CE
:1005E000019B02B0704700BF00100240054A916DA8
:1005F00001439165936D82B003400193019B02B06A
:10060000704700BF00100240024A136843F0040321
:100610001360704710E000E0024A536823F47F4300
:10062000536070470010024000207047034AD2F820
:10063000883023F00303C2F888307047001002406E
:10064000024A936823F4E06393607047001002400D
:10065000024A936823F0F003936070470010024051
:1006600038B5444CA36D43F08053A3650220FFF7D7
:100670009BFF414B1B6803F00703022B03D0AC2107
:100680003E4800F021FC4FF40070FFF797FFD4F8CC
:10069000983043F00103C4F89830D4F898309B07A1
:1006A000FBD5FFF72DFFFFF735FF0128FBD1FFF743
:1006B00039FFFFF73FFF0128FBD1FFF743FFB020D1
:1006C000FFF748FFFFF7A8FF0020FFF74DFFA568E1
:1006D00015F00C05FBD1FFF7BBFFFFF7B1FF4FF49F
:1006E0006050FFF74BFF264801F02AFFFFF78CFF11
:1006F000234801F033FFFFF799FF2846FFF748FF33
:100700004FF08070FFF772FFA36B43F08073A36319
:10071000A36B23F08073A3631A4B5A6822F0E06244
:100720005A605A6822F000425A605A6822F04052D9
:1007300042F000525A605A68120C120442F43B42D2
:1007400042F07F025A605A6822F47F0242F4081293
:100750005A601A6822F47C5242F400521A60FFF781
:10076000C7FEFFF761FF084B0001C0B283F823000A
:1007700038BD00BF00100240002002407C3A000853
:10078000006CDC020060004000ED00E028498B6D49
:1007900043F0805310B54FF480608B65FFF70EFF78
:1007A000FFF7AEFEFFF7B6FE0128FBD1FFF7BAFE5A
:1007B000FFF7C0FE0128FBD1FFF7C4FE8020FFF742
:1007C000C9FEFFF729FF0020FFF7CEFE8C6814F06A
:1007D0000C04FBD1FFF73CFFFFF732FF4FF4405012
:1007E000FFF7CCFE134801F0ABFEFFF70DFF1148F9
:1007F00001F0B4FEFFF71AFF4FF04060FFF7C8FEAC
:10080000FFF776FEFFF710FF0B4B0001C0B283F835
:1008100023002046FFF7C8FE084B1B685B0706D085
:1008200040F2AB110648BDE8104000F04DBB10BDD2
:10083000001002400024F40000ED00E0002002401F
:100840007C3A000808B9FFF7A1BF70470D4A0E496E
:10085000536843F4806310B5536002F5D0320B4CFB
:10086000936D43F0806393652046002201F09FFF63
:100870002046074901F0B0FF2046BDE8104001F0D6
:10088000B2BF00BF0070004030000020F8390020E7
:1008900070000020F0B54FF0804495B00025012095
:1008A000FFF7A4FE4FF47A77256101A92046CDE930
:1008B0000375ADF80450029501F0F4F8236843F095
:1008C00080032360A36823F4A03323F007030126E9
:1008D000A3600CAA602310212046CDE90C36CDE997
:1008E0000E67109501F018F9A369214F23F4806376
:1008F000A3610CAA4FF480712046CDE90D6601F08A
:100900000BF97B6823F004037B600CAA4FF4805141
:100910002046CDE90D6601F0FFF87B6823F4806383
:100920007B60A36823F00803A360A36823F48043DB
:10093000A360A36823F43F43A360636823F07003BC
:100940006360A36823F08003A3600E22022306A93C
:100950004FF09040CDE90623CDE90855CDE90A5680
:1009600001F001F823683343236015B0F0BD00BFE8
:100970001800004038B501204FF09044FFF728FEE2
:100980000220FFF725FE2168012393FAA3F2B2FAB1
:1009900082F29A40032505FA02F221EA020293FA52
:1009A000A3F12260E26893FAA3F0B0FA80F093FA20
:1009B000A3F19840B1FA81F105FA00F0994022EADA
:1009C00000028B401343E36038BD000030B504469D
:1009D00087B01020FFF70AFE45F6C0534BF6803073
:1009E000002C18BF1846134CADF8040000255A23FC
:1009F00001A92046CDE9025301F054F8236823F001
:100A000080032360636823F070036360A36823F0AE
:100A10008003A360E36843F00103E360236843F0CD
:100A200001032360256162B6034B4FF480025A60D4
:100A300007B030BD0010004000E100E008B54FF401
:100A40008020FFF7C5FD034A136843F004031360D9
:100A500008BD00BF00080650044B5A69002ABFBFFA
:100A6000034A9A6002F188329A607047002002407F
:100A70002301674508B5002835D100F0CBF91B4BA1
:100A80001B4A00280CBF184610461A491A4B0A6A1E
:100A900020F0E06042401340002B26D072B60B6974
:100AA000DA03FCD4FFF7D8FF4B695B0041BF134B5F
:100AB000CB6003F14433CB600E4B18625A6942F4A9
:100AC00000325A611A69D103FCD45A69520041BFFD
:100AD0000A4ADA6002F14432DA60064A536943F0A6
:100AE00000635361FEE70648CFE708BDAAF8FFFFA1
:100AF000CCF8FFFF00200240FF773F0B3B2A19088C
:100B0000AAF8FFF708B572B611490B69DB03FCD4EC
:100B1000FFF7A2FF0B690B614A6922F4FF6222F022
:100B200007024A614B6943EAC00343F002034B6189
:100B30004B6943F480334B61054B1A69D203FCD4F3
:100B40001A695A6922F007025A6162B608BD00BFED
:100B50000020024030B572B60C490C460D69ED0319
:100B6000FCD40D690D614D6945F001054D610260D0
:100B700043602369DB03FCD4236901232361636998
:100B800023F00103636162B630BD00BF0020024064
:100B90002DE9F3411546164A1369DB03FCD4FFF730
:100BA0005BFF20F007002C4646194F192B1B9D4276
:100BB000A6EB040802D802B0BDE8F081082C22465A
:100BC000A7EB040128BF0822684602F033FF072C78
:100BD00006D8C4F10802FF210DEB040002F044FF27
:100BE000DDE900234046FFF7B5FF083CDEE700BF24
:100BF000002002401D2893BF024B00EB8000400004
:100C0000185C704708000020014610B5C0F307408B
:100C1000FFF7F0FF0246C1F30720FFF7EBFF0446A2
:100C2000C8B2FFF7E7FF642358434FF080415A43AF
:100C3000000A6343C0F57A701B0A8863C3F57A73B0
:100C40004FF4C060B2FBF0F2C2F57A72CA630B6473
:100C500010BD4FF090431869C04300F00100704789
:100C600008B5002000F0D0F930B9012000F0CCF92F
:100C7000003018BF012008BD0120FCE7014800F04A
:100C800093BB00BF943C0020034B044A5B6A12688C
:100C90005A2000FB02307047001000406001002025
:100CA00038B51C4B00221A611B4A136801331360CC
:100CB000FFF7EAFF194B1B68C01A5A2805D9184BD1
:100CC000186810B140B202F073FC164B1A68164B4C
:100CD0009A421CD1002000F097F9C8B9012000F019
:100CE00093F9051C18BF0125104CFFF7CDFF2268B2
:100CF000801A19280BD90E490A7822B91DB1FFF7BD
:100D0000C3FF0C4B1860FFF7BFFF20600D7038BDAC
:100D10000125E9E70010004060010020700100207B
:100D20006401002028000020610C000868010020F8
:100D3000750100206C01002008B50B4B5A695A61FF
:100D40000A4B1A680A4B9A420DD1FFF79DFF0949D9
:100D50000A68801A192803D9FFF796FF064B186016
:100D6000FFF792FF086008BD000401402800002042
:100D7000530C0008680100206C01002038B50446BF
:100D800072B6FFF781FF064B186062B6054D2CB1B5
:100D90002B68A34202D060B202F00AFC2C6038BD7E
:100DA0007001002064010020014B1B68184700BF40
:100DB0002800002010B50146FFF766FF0446FFF744
:100DC00063FF001B8842FAD310BD0000BFF34F8FB2
:100DD0000549064BCA6802F4E0621343CB60BFF3D7
:100DE0004F8F00BFFDE700BF00ED00E00400FA05F3
:100DF00010B500F01FF9044C20B100F0B1F8034B1E
:100E0000236010BD024BFBE728000020610C0008A6
:100E1000530C0008044BD3E90802044B9A420CBF60
:100E2000C0F340000020704700880308791E55AACF
:100E3000024B1B780BB9FFF709BD70477401002006
:100E400010B5044600F086F818B1204600F062F8AC
:100E5000402010BD054902460B8803F03003302BBB
:100E6000FAD040238121024801F093BC046800407D
:100E7000F83900207047000080B500AF72B6044B0F
:100E80001B6883F30888034B1B689847FEE700BF85
:100E90000000FF1F0400FF1F0A4B4CF6CC421A60F3
:100EA00045F255521A6000225A6040F6FF721A61EC
:100EB0004FF4FA629A60DA685207FCD14AF6AA2225
:100EC0001A60704700300040FEE70000F8B50E4D94
:100ED0002E68632E014613DC0C4F0D483C684022FF
:100EE00000EB841002F0A6FD0134632CC8BF002380
:100EF00006F10106D4BF3C603B602E600020F8BDC7
:100F00004FF0FF30FBE700BF7C010020801A00207B
:100F10008001002010B50C4C0C4B2168402203EBE3
:100F2000811102F087FD0A4B1A68002A09DD216849
:100F300001316329C8BF0021013A21601A600020F5
:100F400010BD4FF0FF30FBE778010020800100204A
:100F50007C010020014B1868704700BF7C01002015
:100F6000F0B5184A184F936C43F4803387B09364FC
:100F700002243023CDE900340023CDE90233049369
:100F80006946092338460593402500F0ECFC01260C
:100F9000694638460095039600F0E5FC0B4B0C4A79
:100FA0001E6019680A431A606FF070021A611D62B0
:100FB0001C635A6822F003025A6003229A6007B049
:100FC000F0BD00BF00100240000400480040024095
:100FD000C0400279074B1A6822F002021A6003220D
:100FE0009A601A6822F010021A601A6842F002022F
:100FF0001A60704700400240024BDA68D207FCD505
:10100000DB6870470040024008B5094958B1012823
:101010000CD0FFF7DFFFFFF7EFFF886B2C288CBFAA
:101020000020012008BD10238B62F2E72023FBE79C
:101030000040024070B5204D2B78002B3AD11F4A5A
:101040000223106893FAA3F1B1FA81F10324490055
:1010500004FA01F120EA010193FAA3F01160D068CB
:1010600093FAA3F1B1FA81F193FAA3F3B3FA83F3FC
:10107000490004FA01F101265B0020EA010106FAA9
:1010800003F30B43D36000BF00BF00BF00BF106974
:1010900080F00200C0F340002870D16896FAA6F3F1
:1010A000B3FA83F3B3409C4021EA040496FAA6F60F
:1010B000D46070BD0120FCE7841A002000040048C1
:1010C000DFF834D000F026F8002103E00B4B5B582A
:1010D000435004310A480B4B42189A42F6D30A4A4D
:1010E00002E0002342F8043B084B9A42F9D302F095
:1010F0006FFCFFF761F8FEE700C00020643B0008CA
:101100000000002050010020500100203841002044
:10111000FEE700000E4AD2F8883043F47003C2F8AC
:1011200088300C4B1A68002042F001021A60986067
:101130001A6822F0A85222F410221A604FF480524A
:10114000DA601A6822F480221A609861FFF77ABB8D
:1011500000ED00E0001002402DE9F041044686B0A9
:10116000002869D090F8293403F0FF021BB980F8F9
:10117000282401F0F9F92546032355F8100B84F8CB
:10118000293400F02AFE0FCD6E460FC62B6833605F
:1011900004F1040898E80E00206800F00DFE00211C
:1011A000206800F024FE00212246234604F11005A9
:1011B0000126084683F82810D98601310F2983F8C3
:1011C000296083F82B00C3E90E00186403F12003A3
:1011D000F0D100231F4682F8283201330F2B82F80A
:1011E000297282F82B72C2E98E77C2F8407202F13E
:1011F0002002F0D10FCD6E460FC62B68336098E801
:101200000E00206800F0F5FD012384F8247084F8B6
:101210002934E369012B02D1204600F08FFB236AB9
:10122000012B02D1204600F077FB206801F084F802
:10123000002006B0BDE8F0810120FAE790F82834DC
:10124000012B10B504460CD0012380F82834006827
:1012500001F06AF8206800F0B6FD002084F8280448
:1012600010BD0220FCE790F82824012A10B504469E
:101270000BD0012280F8282484F82410006801F0A3
:101280004DF8002084F8280410BD0220FCE770B55A
:1012900001F00F06044611F0800F4FEA4610054694
:1012A0001ED0254400F128010120214485F82900A1
:1012B0000A614A780E70CB7002B1CE81022B04BF56
:1012C00000230B7194F82834012B11D0012384F8EA
:1012D0002834206800F0AAFD002084F8280470BD9E
:1012E000254400F50A710020214485F82902DFE732
:1012F0000220F4E710B5044601F00F00430111F09D
:10130000800F1A4615D0224403F1280101232144FD
:1013100082F82930087094F82834012B11D0012369
:1013200084F82834206800F0D9FE002084F82804CE
:1013300010BD224403F50A710023214482F82932AA
:10134000E8E70220F4E770B501F00F0100EB411669
:101350004C01002586F8281204F50A710144C6F8EC
:101360003C22C6F84032C6F8445286F8295200683A
:1013700000F0FEFF284670BD70B501F00F0100EBD4
:1013800041154C012B640026012385F8281004F137
:1013900028010144EA636E6485F82930006800F092
:1013A000E7FF304670BD00002DE9F84F04460068A5
:1013B00000F0CAFF000409D5DFF854A4DFF854B4E4
:1013C0002068B0F844301A0400F1CB80206800F0A7
:1013D000BBFF41050FD52268B2F8443023F4806387
:1013E0001B041B0C2046A2F8443001F010F9002128
:1013F0002046FFF738FF206800F0A6FF430408D519
:101400002268B2F8443023F480431B041B0CA2F87A
:101410004430206800F098FF870408D52268B2F8AD
:10142000443023F400531B041B0CA2F84430206802
:1014300000F08AFFC60426D52268B2F8403023F0B7
:1014400004031B041B0CA2F84030B2F8403023F018
:1014500008031B041B0CA2F8403094F86034012BE5
:1014600005D1002184F86014204600F07BFA204664
:1014700001F0DBF82268B2F8443023F480531B04F7
:101480001B0CA2F84430206800F05EFF05051BD558
:101490002068B0F8403043F00803A0F84030B0F8BE
:1014A000443023F400631B041B0CA0F84430B0F854
:1014B000403043F00403A0F8403000F045FFC00482
:1014C00002D4204601F0B0F8206800F03DFF01068C
:1014D00026D52368B3F8442022F080021204120CAF
:1014E000A3F8442094F86024002A40F08A81B3F8DD
:1014F000402042F00402A3F84020B3F8402042F01C
:101500000802A3F84020B3F854309B08012103F0EF
:101510003C0384F86014C4F86434204600F022FAD6
:10152000206800F011FF82050BD52268B2F8443024
:1015300023F400731B041B0CA2F84430204601F076
:1015400062F8206800F000FFC30508D52268B2F8F1
:10155000443023F480731B041B0CA2F84430BDE814
:10156000F88FB0F8441089B211F00F0740F0A18055
:1015700011F01001038827D10AEA03030380B0F8B1
:10158000502094F8283000F202401044E26B30F80A
:101590003330C3F3090363641344E363204601F06B
:1015A0002BF894F82430002B3FF40AAF226C002A69
:1015B0007FF406AF94F82430216843F08003A1F84B
:1015C0004C3084F82420FBE69BB21A051DD5B0F8F8
:1015D000501094F8282200F206430B4404F586616B
:1015E00033F83230B4F82E22C3F30903C4F844327E
:1015F00000F08CFF2268138823F070031B051B0D7D
:101600001380204600F0E0FFDAE61F047FF5D8AE35
:10161000038823F070031B051B0D0380B0F85010E6
:1016200094F8282200F206430B4433F83230C3F317
:101630000903C4F8443263B1B4F82E22D4F83C1242
:1016400000F064FFD4F83C32D4F844221344C4F8C8
:101650003C320021204600F0BDFF2268D4F8383229
:10166000B2F8501002F2064589B253B96B5A23F40E
:1016700040639B049B0C6FEA43436FEA53436B52F6
:1016800007E03D2B10D85808DE0748BF0130800224
:10169000685213880BEA030383F4405343F4004376
:1016A00043F0800313808BE658485B0940EA8323AC
:1016B000E5E73EB230F826901FFA89F919F4004F99
:1016C0003DD030F8263023F070031B051B0D4FEA88
:1016D000471820F8263004EB080191F83432002B2B
:1016E00053D1B0F8505091F8282200F206432B4411
:1016F00033F83250C5F3090535B1B1F82E22D1F8CF
:101700003C122B4600F002FF04EB461304EB0801E9
:10171000D3F844222A44C3F84422D1F83C222A4474
:10172000C1F83C22D3F840321BB1D1F838028542CF
:101730005ED2A044204698F8281200F04BFF19F022
:10174000800F3FF43DAE236833F826200AEA0202F8
:1017500023F8262004EB4717B3F8501097F82820F9
:1017600003F202430B4404EB461633F83220C2F373
:1017700009027264FB6B97F828101A44FA63336C01
:101780002046DBBB00F038FF1AE691F8283230F82B
:101790002350DA00B0F850306D04034413441DD5D3
:1017A000B3F80254C5F3090535B1B1F830222B4620
:1017B000D1F83C1200F0AAFE04EB0803226893F86B
:1017C000281232F8213023F4E04323F0700343F46D
:1017D000004343F0C00322F8213095E7B3F80654E4
:1017E000C5F30905002DE7D02B46B1F83222DFE71B
:1017F00091F828122046FFF7A6FDA0E7FFF7BCFDF1
:10180000DEE5204600F010FF8AE600BF0080FFFF03
:101810000F8FFFFF8FBFFFFF38B5436801F00F0543
:101820009D4204462DD811F0800F4FF020031ED0AA
:1018300000EB451203FB05030121283382F8291030
:1018400001229A701D7094F8281491421BD084F8DC
:1018500028241946206800F007FD25B904F58661A3
:10186000206800F074FD002084F8280438BD03FBD4
:10187000010300EB4111002203F50A7381F82922CC
:10188000DEE70120F2E70220F0E738B5044601F078
:101890000F006368984224D8430111F0800F1A4664
:1018A00017D0224403F128010123214482F8293072
:1018B00000258D70087094F82834012B13D0012373
:1018C00084F82834206800F0EBFC84F8285428467B
:1018D00038BD224403F50A710023214482F82932DD
:1018E000E6E70120F4E70220F2E711F0800F1BBFCA
:1018F00001F00F0100EB411000EB4110283008BF50
:1019000000F50A7099B21AB90273C18000207047BD
:10191000012202738360F9E703680122C0F86C2496
:10192000B3F8582042F00102A3F85820B3F8582029
:1019300042F00202A3F858200020704703680246D4
:101940000121C0F86814002082F86004B3F8542024
:101950000A43A3F85420B3F8542042F00202A3F83B
:101960005420704770472DE9F04F0A6892FAA2F4AC
:101970004D68B4FA84F405F1FF3C4FF001080326EA
:101980004FF00F0E32FA04F30CD1BCF1010F06D860
:101990004368C96823EA02034A43134343600120B2
:1019A000BDE8F08F08FA04F3134062D0D0F800A02D
:1019B00093FAA3F9B9FA89F993FAA3F7B7FA87F773
:1019C0004FEA490906FA09F97F002AEA090905FAE6
:1019D00007F749EA0707BCF1010F076016D88768C7
:1019E00093FAA3F9B9FA89F993FAA3FA4FEA4909E4
:1019F00006FA09F927EA0909BAFA8AFA8F684FEA5A
:101A00004A0A07FA0AF749EA07078760C76893FA9C
:101A1000A3F9B9FA89F993FAA3FA4FEA490906FA40
:101A200009F927EA0909BAFA8AFA0F694FEA4A0A54
:101A300007FA0AF749EA0707022DC76019D1FF2BF9
:101A4000D1F8149017D8D0F820A093FAA3FBBBFAD2
:101A50008BFB93FAA3F7B7FA87F74FEA8B030EFADB
:101A600003F3BF002AEA030309FA07F943EA09036B
:101A70000362013486E7476A1B0A93FAA3FABAFAAB
:101A80008AFA93FAA3F3B3FA83F34FEA8A0A0EFAB7
:101A90000AFA9B0027EA0A0709FA03F947EA090745
:101AA0004762E6E71A4A0368904210B502D0B0F1E7
:101AB000804F09D14C6823F07003904243EA04033D
:101AC00009D0B0F1804F06D0124A904203D002F5FF
:101AD0008062904203D1CA6823F4407313430360C9
:101AE0008B68C3620B888362094B984207D003F569
:101AF000A053984203D003F58063984201D10B7C38
:101B00000363436943F001034361012010BD00BF3B
:101B1000002C014000400140B1F5807F30B500F05D
:101B2000B58005D801293BD0102973D0002030BDE5
:101B3000B1F5803F00F0E580B1F5801F00F00D8128
:101B4000B1F5805FF2D1036A156823F48053036214
:101B5000036A4468C16921F0807121F4E64141EAD9
:101B60000521156923F4005343EA0533556823F42E
:101B7000805343EA05338F4DA84207D005F5A055A1
:101B8000A84203D005F58065A84204D1956924F4E4
:101B9000804444EA8514D2684460C161026436E03E
:101BA000036A156823F001030362036A41688469CC
:101BB00024F4803424F073042C43156923F00203C9
:101BC0002B43556823F001032B437A4DA84207D0DD
:101BD00005F5A055A84203D005F58065A84212D1AD
:101BE000556923F0080343EA8503956823F004034D
:101BF00043EA8503956921F480712943D56921F46D
:101C0000007141EA4501D268416084614263036228
:101C100001208CE7036A156823F010030362036A4E
:101C20004168846924F0807424F4E64444EA05247D
:101C3000156923F0200343EA0513556823F01003C8
:101C400043EA05135B4DA84207D005F5A055A8420D
:101C500003D005F58065A84213D1556923F08003B0
:101C600043EA8513956823F0400343EA8513956999
:101C700021F4806141EA8501D56921F4006141EADE
:101C8000C501D268416084618263C0E7036A156858
:101C900023F480730362036A4168C46924F48034C6
:101CA00024F073042C43156923F4007343EA0523DD
:101CB000556823F4807343EA05233E4DA84207D0BC
:101CC00005F5A055A84203D005F58065A84213D1BB
:101CD000556923F4006343EA8523956823F4806300
:101CE00043EA8523956921F4805141EA0511D569BC
:101CF00021F4005141EA4511D2684160C461C263D8
:101D000085E7036A146823F480330362036A416D34
:101D100021F4803121F070010C43116923F4003368
:101D200043EA0143516823F4803343EA01432149E4
:101D3000884207D001F5A051884203D001F58061A7
:101D4000884206D14168956921F4803141EA052134
:101D50004160D2684465826559E7036A146823F4D8
:101D600080130362036A416D21F0807121F4E04128
:101D700041EA0424116923F4001343EA0153516832
:101D800023F4801343EA01530A49884207D001F53E
:101D9000A051884203D001F58061884206D1416894
:101DA000956921F4802141EA85214160D26844652A
:101DB000C2652CE7002C014084B001A880E80E0029
:101DC00004B000207047B0F8403043F43F4343F084
:101DD0008003A0F8403000207047B0F8403023F472
:101DE0007E535B045B0CA0F840300020704700205D
:101DF000704784B010B503AC84E80E0000220123C4
:101E0000A0F84030BDE81040A0F84020A0F84420E1
:101E1000A0F85020B0F8403043F43F4343F0800333
:101E2000A0F8403004B0104670470000F0B50C78C0
:101E300030F824200346C87822F4EC4222F07002E5
:101E400003284CD8DFE800F00248464442F4007210
:101E500023F824200E789E4C35B233F825202240FA
:101E6000324342F4004242F0800223F825200D7BE9
:101E70000A78002D7DD1CE884F7876080825760027
:101E800015FB02326FB3B3F850502A44A2F8006435
:101E90000D7833F82520560608D533F82520144050
:101EA00044F4004444F0C00423F82540CA780C7878
:101EB000012A33F82410874A02EA010218BF82F08F
:101EC000200242F4004242F0800223F82420F0BDB8
:101ED00042F4C0620020BBE742F48062FAE70120CE
:101EE000B6E7B3F8504022440C69A2F804640A78BB
:101EF000B3F8506015FB0232B6B202F2064254B992
:101F0000945B24F44064A404A40C6FEA44446FEA94
:101F10005444945307E03D2C26D86508E40748BF95
:101F20000135AD0295530C7833F8242052040BD5BB
:101F300033F8242022F4E04222F0700242F44042BE
:101F400042F0800223F82420097833F8212022F47B
:101F5000804222F0700282F4405242F4004242F089
:101F6000800223F82120B2E75B4D640945EA84240E
:101F7000CFE712B233F82250254045F4014545F031
:101F8000800523F822500D78B3F85060082212FB28
:101F9000053535440E8926F00106A5F800640E7853
:101FA000B3F8505012FB06322A444D8925F0010542
:101FB000A2F804540A784D7812B2002D43D133F8B8
:101FC00022506F0408D533F822502C4044F440448A
:101FD00044F0800423F822400C7833F8242056067D
:101FE0000BD533F8242022F4E04222F0700242F4B0
:101FF000004242F0C00223F824200C7833F8242059
:1020000022F4E04222F0700242F4004242F0C002A8
:1020100023F824200D7833F8252022F4804222F082
:10202000700248F2800482F44052224323F82520B3
:10203000097833F8212022F4E04222F040021443D0
:1020400023F8214043E733F822506D0408D533F8D4
:1020500022502C4044F4404444F0800423F82240B1
:102060000C7833F8242052060BD533F8242022F4C0
:10207000E04222F0700242F4004242F0C00223F833
:1020800024200C7833F8242022F4E04222F070025D
:1020900042F4404242F0800223F824200C78CA78AF
:1020A00024B2012A33F824500A4A02EA050218BF72
:1020B00082F0200242F4004242F0800223F8242001
:1020C000097833F8212022F4804222F0700244E79C
:1020D0008F8FFFFFBF8FFFFF0080FFFF10B50C7BCE
:1020E0004A780B78BCBBF2B130F8232052060BD5EE
:1020F00030F8232022F4E04222F0700242F4004241
:1021000042F0C00220F823200A7830F8223023F46D
:10211000E04323F0400343F4004343F0800320F8FE
:102120002230002010BD30F8232054040BD530F8A5
:10213000232022F4E04222F0700242F4404242F0B6
:10214000800220F823200A7830F8223023F48043DC
:1021500023F07003DFE7002A44D130F82320520433
:102160000BD530F8232022F4E04222F0700242F432
:10217000404242F0800220F823200A7830F82230D2
:102180005C060BD530F8223023F4E04323F07003D3
:1021900043F4004343F0C00320F822300A7830F8BB
:1021A000223023F4E04323F0700343F4004343F070
:1021B000C00320F822300C7830F8243023F4804318
:1021C00023F0700348F28002134320F8243009788A
:1021D00030F8213023F4E04323F040031A4320F881
:1021E00021209EE730F8232052040BD530F823201D
:1021F00022F4E04222F0700242F4404242F08002B7
:1022000020F823200A7830F822305B060BD530F80E
:10221000223023F4E04323F0700343F4004343F0FF
:10222000C00320F822300A7830F8223023F4E0434B
:1022300023F0700343F4404343F0800320F822303E
:102240000C7830F8243023F4E04323F0400348F2C4
:102250008002134320F82430097830F8213023F429
:10226000804323F07003B9E74B780A787BB130F8EC
:10227000223023F4E04323F0400383F0100343F4BF
:10228000004343F0800320F822300020704730F8EC
:10229000223023F4804323F0700383F48053EEE76D
:1022A0004B780A7803B330F822305B060BD530F850
:1022B000223023F4E04323F0700343F4004343F05F
:1022C000C00320F822300A7830F8223023F4E043AB
:1022D00023F0400383F0300343F4004343F08003D2
:1022E00020F822300020704730F822305B040BD5F4
:1022F00030F8223023F4E04323F0700343F44043EA
:1023000043F0800320F822300A7830F8223023F49A
:10231000804323F0700383F44053DDE711B9802339
:10232000A0F84C3000207047B0F8583043F4004318
:10233000A0F8583000207047B0F85830C3F30E03AF
:10234000A0F8583000207047B0F8440070470020D3
:10235000704702F58062013302445B0801EB4303DE
:10236000521A994200D17047088850520231F8E75A
:10237000F8B5044648788E690A690F7B01280D4636
:1023800059D196428ABFB11A00211646A961B6B248
:102390006969EFB93346EA882046FFF7DAFFB4F8F7
:1023A00050102A7804F202430B4423F832602A7852
:1023B00034F8223023F4E04323F0400383F0300369
:1023C00043F4004343F0800324F822300020F8BD9A
:1023D0002B7834F82300DA00B4F850302344134447
:1023E00047064BBFA3F80664A3F802646A892A89EA
:1023F00033462046FFF7ADFF6A782B786AB91BB2E7
:1024000034F8232022F4E04222F0700242F4004229
:1024100042F0C00224F82320C9E7012AC7D11BB229
:1024200034F8232022F4E04222F0700242F44042C9
:1024300042F08002EEE796428CBFB11A0021A961FA
:1024400088BF1646297897B9B4F8500004F20642BE
:10245000024402EBC102AEBB138823F440639B0429
:102460009B0C6FEA43436FEA5343138032E088B911
:10247000B4F8500004F20242024402EBC102A6B9D1
:10248000118821F440618904890C6FEA41416FEAA7
:10249000514111806A7828785ABBB4F8501004F280
:1024A00006420A4402EBC002D5E73D2E05D871086A
:1024B000F00748BF01318902EBE71348710940EA90
:1024C0008121E6E73D2E0FD87108F30748BF01319F
:1024D000890211802A7834F8223023F4804323F0D3
:1024E000700383F440536BE7074B710943EA812380
:1024F000BBE7012A01BFB4F8502004F20641891855
:1025000021F83060E6E700BF0080FFFF02F580623F
:10251000F0B510445D080C462E46471A3A190234AD
:1025200036B9DB0744BF30F8153001F81530F0BD7F
:10253000128804F8022C120A04F8012C013EEDE77F
:102540004FF47A73B0FBF3F0034B0022013858606C
:102550009A6005221A60704710E000E0014B186095
:10256000704700BF2C000020144A936D43F0806335
:1025700093658369012B01BFA2F58632136843F48A
:10258000802313600E4BDA68C2F30222C2F1070106
:10259000131D042928BF0421062B4FF0FF3303FA33
:1025A00001F38CBF033A0022DB4393401B01054A31
:1025B000DBB282F843330823936070470010024077
:1025C00000ED00E000E100E000F58661D0F8700465
:1025D00000F020B900EB411310B5D3F83C22D0F83D
:1025E00070040C4600F043F9012C04D12046BDE8EC
:1025F000104000F07FBD10BD00EB4113D0F8700417
:10260000DA6B00F06CB9D0F8700400F0EDB910B5D9
:1026100004460121D0F8700400F0E3F9D4F8700406
:10262000BDE8104000F0B6B970477047364A5368AD
:1026300043F4806310B553600446344A3448082399
:10264000C0E90023C0F8704400230222C4F89802B5
:10265000C0E90223C0E90423C0E906330362FEF7A0
:102660007BFD18B1FE212B48FEF72EFC00221146FF
:102670001823D4F89802FFF738F958230022802154
:10268000D4F89802FFF731F9982300220121D4F8F9
:102690009802FFF72AF9D82300228121D4F8980262
:1026A000FFF723F94FF48C7300220421D4F8980229
:1026B000FFF71BF94FF4AC7300228621D4F898027F
:1026C000FFF713F94FF4CC7300228521D4F8980258
:1026D000FFF70BF94FF4EC7300228321D4F8980232
:1026E000FFF703F94FF4067300220221D4F8980291
:1026F000FFF7FBF84FF4167300228221D4F89802FA
:10270000FFF7F3F8002010BD0070004000680040A3
:10271000943C0020873A000808B5D0F89802FEF7EC
:102720008DFD002008BD10B51C46D0F89802134658
:102730002246FEF7ACFD002010BD08B5D0F8980287
:10274000FEF7D8FD002008BD08B5D0F89802FFF7C5
:1027500063F8002008BD08B5D0F89802FFF795F897
:10276000002008BD0A06D0F8983245BF01F07F016D
:1027700003EB411303EB411393F82A0058BF93F87E
:102780002A02704708B5D0F89802FEF76CFD0020C9
:1027900008BD08B5D0F89802FEF7EEFD002008BD90
:1027A00008B5D0F89802FEF7CEFD002008BD08B5A8
:1027B00080B1D0F88C3213B10023C0F88C3209B14B
:1027C000C0F88812012380F874320270FFF72EFFE0
:1027D000002008BD0220FCE719B1C0F88C120020CF
:1027E00070470220704708B5FFF796FF002008BD2C
:1027F00008B5D0F88C320BB9022008BD1B68984789
:102800000028FAD0F8E708B5D0F88C325B68984712
:10281000002008BD38B5044600F52075284600F0B4
:10282000F6FA012394F88012C4F86C32B4F88632B8
:10283000C4F8703201F01F03012B0ED03BB1022B04
:1028400010D001F080012046FFF77EFF03E029460B
:10285000204600F013F9002038BD2946204600F03C
:1028600029FAF8E72946204600F049FAF3E770B55F
:10287000044616460D4629BBD0F86C32032B1CD1FA
:10288000D0E9533293420BD99B1A9A42C0F84C318B
:102890008CBF9AB292B2314600F0C7F8284670BD9C
:1028A000D0F88C321B6923B190F87422032A00D12E
:1028B0009847204600F0C1F8F0E7052BEED1FFF76E
:1028C00043FFEBE7D0F88C329B6933B190F8742268
:1028D000032A02D198470025E0E70225DEE770B51C
:1028E000044616460D46002947D1D0F86C32022B1B
:1028F0003CD1D0E90832934214D99A1A0262314687
:1029000092B200F08AF82B462A4629462046FFF765
:1029100047FF94F87832012B02D1002384F87832F3
:10292000284670BDC369B3FBF2F602FB16365EB9EA
:102930009A4209D8D0F87022934205D20A4600F094
:102940006CF8C4F87052DEE7D4F88C32DB682BB137
:1029500094F87422032A01D120469847802120460A
:10296000FFF7F2FE204600F073F8D2E733F00403DD
:10297000CFD18021FFF7E8FECBE7D0F88C325B693E
:1029800033B190F87422032A02D198470025C7E793
:102990000225C5E770B500220446114601254026F0
:1029A0004023FFF7C0FE33468021C4F84451C4F8E9
:1029B000506100222046FFF7B6FED4F89032A561A0
:1029C0000021666284F87452C4F86C126160C4F825
:1029D0007C1223B1D4F88C3220465B6898470020E3
:1029E00070BD01740020704708B590F87422032A66
:1029F00004D1D0F88C32DB6903B19847002008BDC0
:102A000010B513460222C0F86C22C0E907330A460B
:102A10000021FFF7BEFE002010BD08B513460A4690
:102A20000021FFF7B6FE002008BD08B513460A4690
:102A30000021FFF7B5FE002008BD08B50423C0F84B
:102A40006C3200231A461946FFF7A3FE002008BD8A
:102A500008B50523C0F86C3200231A461946FFF763
:102A60009FFE002008BD10B580210446FFF76CFED4
:102A700020460021BDE81040FFF766BE37B50B7851
:102A800003F06003202B04460D4614D0402B12D0D7
:102A9000002B40F08E804B78092B00F28A80DFE813
:102AA00013F0E300FC008800F50088007D001300AF
:102AB0008800CE009B00D4F88C3229469B682046C3
:102AC0009847002003B030BD4B881A0A013A062A05
:102AD0006FD8DFE802F00416236E6E434C00D0F886
:102AE00088321B68207C0DF106019847BDF806204E
:102AF000002A4FD0EB88002B43D12046FFF79DFFE3
:102B0000DFE7027CD0F88C3232B99B6A0DF1060007
:102B1000984702234370E9E7DB6AF7E7DBB2052B4E
:102B200047D8DFE803F003070B0F1317D0F88832FC
:102B30005B68D7E7D0F888329B68D3E7D0F8883253
:102B4000DB68CFE7D0F888321B69CBE7D0F8883252
:102B50005B69C7E7D0F888329B69C3E7037C43BB56
:102B6000D0F88C320DF106005B6B9847BEE7037C12
:102B7000FBB9D0F88C320DF106001B6B9847072388
:102B8000C8E79A4228BF1A4601462046ADF80620FB
:102B9000FFF736FFEB88002B93D1AEE78B8843B964
:102BA000CB8833B94D887F2D03D890F87432032B2E
:102BB00003D12046FFF757FF83E7E9B280F876128A
:102BC000FFF7E0FD2046FFF738FF1DB1022384F830
:102BD000743276E70123FAE78978354D01292970A7
:102BE000E7D890F87432022B08D0032B15D0FFF7EA
:102BF0003AFF29782046FFF706FE62E700293FF4F6
:102C00007CAF01210323416080F874322046FFF736
:102C1000EFFD02287FF471AFCBE731B9022380F8D2
:102C200074324160FFF7EFFD67E7416801293FF427
:102C300064AFC9B2FFF7E7FD29786160E6E7CA88AB
:102C4000012AB6D190F87432002BB2D0022B03D9EE
:102C5000032BAED1011D03E00146002341F8083FDC
:102C60002046FFF7CDFE2CE790F87432013B022B93
:102C70009FD8CA88022A9CD1D0F87C320146002B0A
:102C800014BF1346002341F80C3FE9E74B88012BA2
:102C90007FF417AFC4F87C322FE790F87432013B11
:102CA000022B86D84B88012B7FF40BAF0023F1E772
:102CB000851A002038B50B7803F06003202B0446FA
:102CC0000D4602D0402B00D0ABB994F87432013BD2
:102CD000022B10D82B79012B0DD8D4F88C32294631
:102CE0009B6820469847EB881BB910B92046FFF730
:102CF000A4FE002038BD2046FFF7B5FEF9E738B541
:102D00000A7802F06002202A04460B4615D0402AB9
:102D100013D072B95A788D88012AE9B221D0002ADD
:102D200036D0032A05D190F87422022A27D0032A2C
:102D30000BD02046FFF797FE05E0D4F88C22194609
:102D4000926820469047002038BD5A882AB94A0622
:102D500003D0DB880BB9FFF7F7FC2046FFF76DFEC9
:102D6000F1E790F87422022A09D0032AE1D15B88A6
:102D7000002BE8D14D06F0D0FFF7EDFCEDE74B0658
:102D8000D7D0FFF7E1FC80212046FFF7DDFCDAE732
:102D900090F87432022B18D0032BCAD101F00F0225
:102DA000142315F0800F03FB02021DD09269002A44
:102DB000BFD001F07F0505FB0335054411F07F030B
:102DC0001DD12B60022229460AE04A06B1D12B060A
:102DD0004CBF00F1140100F5A07100230B6002222A
:102DE0002046FFF70DFEAEE7D2F84421002AA0D01E
:102DF00001F07F0503FB050505F5A075DEE720461C
:102E0000FFF7B0FC08B10123DBE72860DAE70B78B5
:102E100003704B784370CA788B7803EB02234380AE
:102E20004A790B7903EB02238380CA798B7903EB10
:102E30000223C380704710B580210446FFF784FC4D
:102E400020460021BDE81040FFF77EBC30B588B1B8
:102E5000042A0FD900220138551C445D5CB9D2B256
:102E6000013252001A8003234B700A70022310F8BB
:102E7000015F15B930BD2A46EEE75A1CD2B2CD54D7
:102E80000233DBB28C54F2E712230B800048704708
:102E90009C3A000804230B8000487047DE3A000883
:102EA00010B5044C04480B4630222146FFF7CEFFF4
:102EB000204610BD08410020B73A000810B5044C68
:102EC00004480B4630222146FFF7C0FF204610BDC4
:102ED00008410020AE3A000870B5254A8CB00B4678
:102EE00007AC02F1100610685168254603C5083288
:102EF000B2422C46F7D112782A701E491E4C00228D
:102F00008DF81820C87A8DF804001C4800782478C1
:102F100020448DF80500487A8DF80600184800789E
:102F20000C7820448DF80700C8798DF8080089795D
:102F30008DF8091003AC01AD204615F8011B0CAE4D
:102F400006EB111601F00F0116F8146C26700CAE8A
:102F50003144013211F8141C6170062A04F1020494
:102F6000EBD130220749FFF771FF06480CB070BD66
:102F7000CD3A00089075FF1F9275FF1F9A75FF1FCD
:102F80009875FF1F084100202923038000487047DF
:102F9000C0000020D0F89032002018737047000065
:102FA0000A23038000487047B400002037B5002290
:102FB000ADF806200C78CA88D0F8903202F07F0273
:102FC00014F06004CA801ED0202C32D14A78023A14
:102FD000092A2ED8DFE802F0140B2D2D2D2D2D2DD2
:102FE00010058A781A600024204603B030BD012203
:102FF0001946FFF705FDF6E74A88120A5A60F2E71C
:103000000122191DF5E74D780B2D12D8DFE805F0E8
:1030100006111111111115111111272F90F8743289
:10302000032B06D102220DF10601FFF7E9FC2C4625
:10303000DAE7FFF700FF0224D6E74B881B0A222BB2
:1030400006D1222A0D4928BF2222FFF7D9FCCBE75F
:10305000212BEED1092A28BF09220949F5E790F86A
:103060007422032AE5D1012203F10801EDE790F86B
:103070007422032ADDD18A789A60B5E74C000020DB
:10308000A800002010B581210446FFF756FB01215E
:103090002046FFF752FB0020E062C4F8580110BD43
:1030A00010B54023044603228121FFF73CFB402357
:1030B000032201212046FFF736FB0121074BE16285
:1030C000C4F85811C4F8903200241C73044A05480F
:1030D0004023FFF765FB204610BD00BFC61A002045
:1030E000861A0020F8390020D0F89032002018739A
:1030F0007047000070B5094C40252046FDF7E6FEFC
:103100002A460021204600F0AFFC2B462246012132
:103110000348BDE87040FFF743BB00BF861A00209C
:10312000F83900200C4B70B51C6841F2020604F51A
:103130008052A35B12880D465918914202DD01208E
:1031400000F032FC2A460146E01800F073FCA35B55
:103150001D44A553002070BDD81A00202DE9F3416D
:10316000044618461D460F46904600F011FC1448D0
:10317000267805600546EEB942463946204600F0FD
:10318000C7F884B23046FDF7F9FDB4F5104F13D1FE
:10319000230A01210DF107008DF80730FFF7C2FF68
:1031A00001210DF107008DF80740FFF7BBFF02B0CA
:1031B000BDE8F0814FF4DC44286800F0E9FBE7E764
:1031C000D81A002030B4027943798579120442EA92
:1031D00003222A430B4630BCC11DFFF7BFBF0000CE
:1031E000014B186800F0D4BBD81A0020014B1860BE
:1031F000704700BFD81A002007B5084B18689A8896
:1032000000909B79ADF80420062168468DF80630C1
:10321000FFF788FF024803B05DF804FBE23A0008BC
:103220000090FFFF172908B508DD04220449104467
:1032300000F0F2FBB0FA80F0400908BD0020FCE786
:10324000E93A00082DE9F0431D4695B001238DF8B9
:1032500003302B78103B4FF00008012B16468DF8F9
:1032600002804ED84046FDF73BF981464046FDF7C7
:1032700037F907464046FDF733F904464046FDF767
:103280002FF93F02000E40EA096007F47F07240A85
:10329000384304F47F442043019001210DF10300E1
:1032A000FFF740FF04210DEB0100FFF73BFF012179
:1032B0000DF10200FFF736FF29463046FDF75AF8B8
:1032C00040B28DF80200C0B1FFF78AFF01210DF175
:1032D0000300FFF727FF04210DEB0100FFF722FF9A
:1032E0000021482202A800F0BFFB9DF802308DF8B3
:1032F0000830482102A8FFF715FF044815B0BDE8C3
:10330000F0834FF020630193C7E700BF0090FFFFF9
:103310002DE9F0414378022B07460C461CD191F869
:10332000405001F1410630462946FFF77BFFBB784C
:10333000072B07D1002846F6851008BF4FF4D5406B
:10334000BDE8F08178B133462A4604F120012046D9
:10335000BDE8F041FFF776BF032B07D14AB9BDE8BE
:10336000F041FFF749BF4FF4D540E9E74FF4DA40A9
:10337000E6E74FF4CE40E3E7094A30B500231824CE
:1033800004FB03F18D58854203D10A4400201074D8
:1033900030BD0133092BF3D14FF0FF30F8E700BF08
:1033A000E01A0020044A00231380044A1360044AF0
:1033B0001360044A136070478A3900209439002052
:1033C000983900208C390020044B188828B1044B10
:1033D0001B6898420CBF0220012070478A390020E8
:1033E000943900200C4A38B511460023147C5CB98E
:1033F00018225343CD18C85001232B74FDF744FC09
:10340000C5E90204204638BD0133092B02F1180238
:10341000ECD14FF0FF30F6E7E01A002038B50C4C45
:103420000022182303FB02F52959814209D1FDF737
:103430002BFC631900220121C3E902021974104612
:1034400038BD0132092AEDD14FF0FF30F8E700BF57
:10345000E01A00202DE9F84304460D468E18042793
:103460004FF005084FF00709B54201D1BDE8F883D8
:10347000D4E903235AB96268C4F81520E760C3B9D8
:1034800021892278627649BA6183C4F80C90E16898
:103490004A1CE260214415F8010B48750133402AAB
:1034A0002361E1D104F11500FDF7D4FC0023E360B2
:1034B000DAE7227D6276511C2175C4F80C80E6E7BC
:1034C00010B50446E1B9C2685AB902694AB94268FE
:1034D000C0F8152002784276028952BA4283072248
:1034E000C260E06800280FDD1534C0F14002002101
:1034F000204400F0B9FA2046BDE81040FDF7AABC10
:10350000BDE81040FFF7A6BF10BD10B598B0044647
:103510008DF807105822002102A800F0A5FABF2359
:1035200001220DF1070102A88DF80830ADF8102036
:103530000394FFF78FFF0022114602A8FFF7C0FF98
:1035400018B010BDFFF72EBF2DE9F04DDFF85C80FD
:10355000154D002440F2ED2A4FF0000B98F8103082
:10356000D3B1FDF791FBD8E902320021C61A61EB15
:103570000207BB4508BFB2450ED20521D8F80000AE
:10358000FFF7C3FF002388F81030D8F800202B681D
:103590009A4201D1FFF706FF01340A2C08F11808FE
:1035A000DCD1BDE8F08D00BF8C390020E01A00208E
:1035B00000B599B058228DF80700002102A800F04C
:1035C00053FA0B4B1B6803930122BB230DF1070138
:1035D00002A88DF80830ADF81020FFF73BFF00225D
:1035E000114602A8FFF76CFF19B05DF804FB00BF9D
:1035F0008C390020F7B51446064608460D4600F003
:10360000C7F92378D12B40D004D8D02B1DD000206F
:1036100003B0F0BDD32B3DD0E12BF8D11F4E0427D2
:10362000278105230125B37037707570FDF7F2FB14
:103630003A46F07031462046FFF70CFF0022204644
:103640001146FFF73DFF2846E2E72846FFF7CEFD8B
:10365000304641F202061149FCF78CFEAB5B8DF857
:1036600007000133238101220DF107012046FFF7F6
:10367000F1FEAA5B29462046FFF722FF00221146F1
:103680002046FFF71DFF0120C2E7FDF705FC0022E1
:103690002281F4E7FDF79AFBF5E700BFD01B00207D
:1036A0002DE9F04302790668ADF5815D862A81B087
:1036B00004465BD1B0F80530B3F5006F03D00025A8
:1036C00003240327CBE0002E00F0E480FFF73AFF4D
:1036D0000768781C12D1A44B1D6801356A1E03329D
:1036E00005F1010108D828461D60FFF77BFE013077
:1036F00014D100250624E4E70D46EFE79B4A00239A
:10370000182101FB03F08058874200F01581013336
:10371000092BF6D13846FFF765FE10E1582200214B
:1037200007A800F0A1F954F8070F089786236168ED
:103730008DF81C3002AB019303C3019B01999D607E
:1037400002231122CB6007A805230B74ADF82420B7
:10375000FFF780FE002207A81146FFF7B1FE2846BA
:10376000FFF70AFE00252C46042778E0711C00F0C4
:1037700091807E49002318200D4600FB03F77F58F7
:10378000BE420AD00133092BF7D1130605D5FFF746
:103790001BFE10B93046FFF725FE216800231822D2
:1037A00002FB03F02858814200F0CB800133092B43
:1037B000F6D194F90430002BD4DA9AE7002B22DA00
:1037C000B4F805305BBA9AB241F6B955AA423FF651
:1037D00076AF674D2B80674B1860674B6748196061
:1037E000392A674B28BF39221A60664B4FF0FF31E8
:1037F0001960E11D00F01EF92068FFF70FFE38B3D5
:10380000012000F0D1F8002DADD05B4B1B68994230
:10381000A8D1574B5B4AB3F800801368584F013367
:1038200083423D68136040F09C80A8EB050253483A
:103830003B2A284404F1050104DC00F0FBF8C7F83A
:103840000080D9E73B223B3500F0F4F83D60D3E738
:10385000474B1D88474B1C78FFF7B6FD0746DFF83E
:103860002C8158220021404600F0FEF8042FC8F8B1
:10387000046088F8004014D0032F0ED13046FFF7C3
:103880007BFD042C01D1FFF78DFD21463046FFF76B
:103890003CFE06E000250B2413E7012F03D1FDF7C2
:1038A000F3F9002433E0862CAAD0912C3BD0832C52
:1038B00033D10DB90321E9E7334F3D780DB106212E
:1038C000E4E7012307A80DF120093B7000F060F840
:1038D00007A92A48FFF776FCB9F8FE2FA8F80820B8
:1038E00007A94046C8F8046088F80040FFF7B2FD19
:1038F0002A4629464046FFF7E3FD3D703046FFF774
:103900003BFDFFF74FFD204B1B78002BC9D1204614
:103910000DF5815D01B0BDE8F083424607A9284658
:10392000FFF768FE18B1184B00221A70E6E7012174
:103930003046FFF7EAFDE1E73846FFF76FFD3D4609
:10394000D5E6FFF741FD05462079012D43B27FF40E
:1039500035AF094A126891427FF42DAF002BBFF6B4
:1039600054AF00250424ACE6EC000020E01A00204F
:103970008A390020903900208C390020D01B00208B
:1039800094390020983900209C390020A03900206B
:1039900008B541F20402002100F066F800F58053FA
:1039A0004FF480521A8008BD08B5074B044613B186
:1039B0000021AFF30080054B1868836A03B1984774
:1039C000204600F059F800BF00000000F03A00085F
:1039D00070B50D4D0D4C641BA4100026A64209D1F4
:1039E0000B4D0C4C00F0B6F8641BA4100026A64248
:1039F00005D170BD55F8043B98470136EEE755F800
:103A0000043B98470136F2E7000000000000000088
:103A1000000000000000000030B501390024A2427F
:103A200001D1002005E0035D01340D5DAB42F6D00D
:103A3000581B30BD884210B501EB020302D9834206
:103A40001C4607D8421E994208D011F8014B02F8D3
:103A5000014FF8E783189A1A9A4200D110BD14F862
:103A6000011D03F8011DF7E702440346934200D10C
:103A7000704703F8011BF9E7FEE700BF7372632F7D
:103A8000696E69742E63006C69622F757362642FAE
:103A9000757362645F636F6E662E630012010002CD
:103AA000000000408304CAA2000101020301536F19
:103AB0006C6F4B65797300536F6C6F20426F6F743E
:103AC0006C6F6164657220342E312E3500303132D6
:103AD00033343536373839414243444546000403D0
:103AE00009045532465F5632008C2790F6000000DC
:103AF000F0000020000000000000000000000000B6
:103B000000000000000000000000000000000000B5
:103B100000000000000000000000000000000000A5
:103B20000000000000000000000000000000000095
:103B30000000000000000000000000000000000085
:103B40000000000000000000000000000000000075
:103B500000000000F8B500BFF8BC08BC9E467047E6
:103B6000F8B500BFE80300001300000000506573C3
:103B70007F8991999FA6ACB1B6BBC0C4C8CDD0D443
:103B8000D8DBDFE2E5E8EBEEF1F50000530C0008CE
:103B900000093D00892E0008952E0008BD2E000862
:103BA000A12E0008D92E000800000000000000002F
:103BB00006D0F10901A1010920150026FF007508B2
:103BC000954081020921150026FF00750895409156
:103BD00002C00000A130000885300008AD2F0008A9
:103BE0000000000000000000952F0008E9300008E8
:103BF000000000000000000000000000892F000805
:103C0000892F0008892F0008A12F00080921110021
:103C100000012222000000000A060002000000400D
:103C2000010000000902290001010080320904009E
:103C300000020300000209211101000122220007F5
:103C40000581034000050705010340000500000051
:103C50000100000000000000143B0008343B000895
:103C6000F43A00080000000000000000000000001E
:103C70000000000000000000000000000000000044
:103C80000000000000000000000000000000000034
:103C90000000000000000000000000000000000024
:103CA0000000000000000000000000000000000014
:043CB0000000000010
:1050000000C00020B1740008017500080175000897
:105010000175000801750008017500080000000016
:105020000000000000000000000000000175000802
:1050300001750008000000000175000801750008F6
:105040000175000801750008017500080175000868
:1050500001750008017500084D5C00080175000825
:105060000175000801750008017500080175000848
:105070000175000801750008017500080175000838
:105080000175000801750008017500080175000828
:105090000175000801750008017500080175000818
:1050A0000175000801750008017500080175000808
:1050B00001750008000000000000000001750008F4
:1050C00001750008000000000000000001750008E4
:1050D00000000000017500080175000800000000D4
:1050E00001750008017500080000000000000000C4
:1050F00000000000000000000000000000000000B0
:105100000000000000000000000000000175000821
:105110000000000000000000915C0008017500081C
:105120000175000801750008017500080175000887
:1051300001750008000000000000000000000000F1
:10514000017500080175000801750008295C000858
:105150000175000801750008017500080175000857
:1051600001750008017500080175000800000000C5
:105170000175000801750008000000000000000033
:1051800001750008017500080175000800000000A5
:1051900010B590B000F06CFE4022002168460DF082
:1051A000DFFF002400F046FD001B962804D900F024
:1051B0004FFF00F03FFD044601F060F8684600F044
:1051C000F1FE002807DD684605F050F94022002175
:1051D00068460DF0C5FF05F0ADF8E3E7024BD8686F
:1051E000C0F30220704700BF00ED00E0034AD2F890
:1051F000943043F00103C2F894307047001002402D
:10520000024BD3F89400C0F34000704700100240F6
:10521000024A136843F00103136070470010024014
:10522000024B1868C0F34000704700BF00100240F6
:10523000024A136843F008031360704700100240ED
:10524000034A136823F0F00318431060704700BF4F
:1052500000100240034A936823F003031843906050
:10526000704700BF00100240034A936823F4605364
:1052700018439060704700BF00100240044AD2F803
:10528000883023F040631843C2F88800704700BF9D
:1052900000100240034A136823F00703184310600C
:1052A000704700BF00200240034A136823F4C06324
:1052B00018431060704700BF00700040054AD16C71
:1052C0000143D164D36C82B003400193019B02B0CF
:1052D000704700BF00100240054A916D014391657F
:1052E000936D82B003400193019B02B0704700BFF1
:1052F00000100240054A116E01431166136E82B020
:1053000003400193019B02B0704700BF00100240B0
:10531000024A136843F004031360704710E000E092
:10532000024A536823F47F435360704700100240E1
:1053300000207047034AD2F8883023F00303C2F8F4
:105340008830704700100240024A936823F4E063FB
:105350009360704700100240024A936823F0F00304
:10536000936070470010024038B5444CA36D43F081
:105370008053A3650220FFF78DFF414B1B6803F0AC
:105380000703022B03D0AC213E4801F065F84FF42F
:105390000070FFF789FFD4F8983043F00103C4F898
:1053A0009830D4F898309B07FBD5FFF71FFFFFF725
:1053B00027FF0128FBD1FFF72BFFFFF731FF012863
:1053C000FBD1FFF735FFB020FFF73AFFFFF7A8FF4B
:1053D0000020FFF73FFFA56815F00C05FBD1FFF794
:1053E000BBFFFFF7B1FF4FF46050FFF73DFF2648CA
:1053F00003F0A4FAFFF78CFF234803F0ADFAFFF7A0
:1054000099FF2846FFF73AFF4FF08070FFF764FFDF
:10541000A36B43F08073A363A36B23F08073A36338
:105420001A4B5A6822F0E0625A605A6822F0004231
:105430005A605A6822F0405242F000525A605A684C
:10544000120C120442F43B4242F07F025A605A6846
:1054500022F47F0242F408125A601A6822F47C5245
:1054600042F400521A60FFF7B9FEFFF761FF084BE4
:105470000001C0B283F8230038BD00BF0010024015
:105480000020024080800108006CDC0200600040C7
:1054900000ED00E028498B6D43F0805310B54FF4C8
:1054A00080608B65FFF700FFFFF7A0FEFFF7A8FE07
:1054B0000128FBD1FFF7ACFEFFF7B2FE0128FBD1BC
:1054C000FFF7B6FE8020FFF7BBFEFFF729FF0020A5
:1054D000FFF7C0FE8C6814F00C04FBD1FFF73CFF13
:1054E000FFF732FF4FF44050FFF7BEFE134803F0C2
:1054F00025FAFFF70DFF114803F02EFAFFF71AFF08
:105500004FF04060FFF7BAFEFFF768FEFFF710FFAD
:105510000B4B0001C0B283F823002046FFF7BAFE10
:10552000084B1B685B0706D040F2AB110648BDE88C
:10553000104000F091BF10BD001002400024F400A4
:1055400000ED00E0002002408080010810B5284CEA
:10555000A36D43F08053A3650120FFF79BFE254B0D
:105560001B6803F00703012B04D040F2BB11224853
:1055700000F072FF4FF48060FFF796FEFFF736FEF3
:10558000FFF73EFE0128FBD1FFF742FEFFF748FE82
:105590000128FBD1FFF74CFE9020FFF751FEFFF7EB
:1055A000BFFE0020FFF756FEA36813F00C0FFBD1DF
:1055B000FFF7D2FEFFF7C8FE4FF44050FFF754FE4E
:1055C0000E4803F0BBF9FFF7A3FE0C4803F0C4F943
:1055D000FFF7B0FE4FF04060FFF750FEFFF7FEFD13
:1055E000FFF7A6FE064B0001C0B283F8230010BDF2
:1055F00000100240002002408080010800366E0149
:1056000000ED00E0012805D010B1022804D0704759
:10561000FFF740BFFFF79ABFFFF7A6BE144A154930
:105620005368154843F4806310B5536002F5D032D7
:10563000124C936D43F080639365114A03F020FC94
:10564000104B1149012000228861186102204A6034
:10565000886098600D495A60204603F044FD20465A
:105660000B4903F055FD2046BDE8104003F057BD3F
:1056700000700040A80100102C0100106C470020B1
:1056800044000010084A0020484A0020EC000010A6
:10569000A8000010F0B54FF0804495B0002501201F
:1056A000FFF71AFE4FF47A77256101A92046CDE96C
:1056B0000375ADF80450029502F0F2FB236843F045
:1056C00080032360A36823F4A03323F0070301269B
:1056D000A3600CAA602310212046CDE90C36CDE949
:1056E0000E67109502F016FCA369214F23F4806326
:1056F000A3610CAA4FF480712046CDE90D6602F03B
:1057000009FC7B6823F004037B600CAA4FF48051F2
:105710002046CDE90D6602F0FDFB7B6823F4806333
:105720007B60A36823F00803A360A36823F480438D
:10573000A360A36823F43F43A360636823F070036E
:105740006360A36823F08003A3600E22022306A9EE
:105750004FF09040CDE90623CDE90855CDE90A5632
:1057600002F0FFFA23683343236015B0F0BD00BF99
:105770001800004030B5012085B04FF09044FFF78D
:105780009DFD0220FFF79AFD2268012393FAA3F101
:10579000B1FA81F19940032505FA01F122EA0101EC
:1057A00093FAA3F22160E16893FAA3F0B0FA80F0D3
:1057B00093FAA3F29840B2FA82F205FA00F09A4006
:1057C00021EA000103FA02F20A430C49E2608A6806
:1057D0000F2022F00F0290FAA0F08A6001A80022A8
:1057E00001930292ADF80C308DF80E3003F0E8F81A
:1057F000034B40221A6005B030BD00BF00000140DD
:1058000000E100E030B5044687B01020FFF764FDEA
:1058100045F6C0534BF68030002C18BF1846134C89
:10582000ADF8040000255A2301A92046CDE9025312
:1058300002F036FB236823F080032360636823F0C3
:1058400070036360A36823F08003A360E36843F000
:105850000103E360236843F001032360256162B61E
:10586000034B4FF480025A6007B030BD0010004077
:1058700000E100E008B54FF48020FFF71FFD034A68
:10588000136843F00403136008BD00BF000806500E
:1058900010B54FF4805090B0FFF72CFDE0220223AA
:1058A0000024CDE900230323CDE902346946052312
:1058B0004FF090400494059302F053FA4FF4827134
:1058C0004FF4E063CDE9071301204FF40073CDE9F5
:1058D0000A031023CDE90C34069409940E94064C67
:1058E000072306A920460F9303F03CF8636823F0D2
:1058F0001003636010B010BD0030014010B50446C5
:105900000120FFF7F7FC4FF08050FFF7E5FC2D4A30
:10591000D36823F4E0631B041B0C43F0BF6343F420
:105920000133D360FFF75AFCFFF702FD0001C0B25C
:105930001076FFF753FCFFF7FBFC0001C0B2507676
:10594000FFF74CFCFFF7F4FC0001C0B29076FFF7C4
:1059500045FCFFF7EDFC0001C0B2D077FFF73EFC3D
:10596000FFF7E6FC0001C0B282F82000FFF736FC2A
:10597000FFF7DEFC0001C0B282F82200FFF72EFC28
:10598000FFF7D6FC0001C0B282F82300FFF7F2FE59
:1059900094B14FF48060FFF787FCFFF77BFD4FF475
:1059A0008060FFF781FC2046FFF72CFFFFF762FFC6
:1059B000BDE81040FFF76CBFFFF7D6FCFFF76AFEAB
:1059C000F1E700BF00ED00E0044B5A69002ABFBFB9
:1059D000034A9A6002F188329A60704700200240C0
:1059E0002301674508B5002835D100F007FA1B4BA5
:1059F0001B4A00280CBF184610461A491A4B0A6A5F
:105A000020F0E06042401340002B26D072B60B69B4
:105A1000DA03FCD4FFF7D8FF4B695B0041BF134B9F
:105A2000CB6003F14433CB600E4B18625A6942F4E9
:105A300000325A611A69D103FCD45A69520041BF3D
:105A40000A4ADA6002F14432DA60064A536943F0E6
:105A500000635361FEE70648CFE708BDAAF8FFFFE1
:105A6000CCF8FFFF00200240FF773F0B3B2A1908CC
:105A7000AAF8FFF708B572B611490B69DB03FCD42D
:105A8000FFF7A2FF0B690B614A6922F4FF6222F063
:105A900007024A614B6943EAC00343F002034B61CA
:105AA0004B6943F480334B61054B1A69D203FCD434
:105AB0001A695A6922F007025A6162B608BD00BF2E
:105AC0000020024030B572B60C490C460D69ED035A
:105AD000FCD40D690D614D6945F001054D61026011
:105AE00043602369DB03FCD42369012323616369D9
:105AF00023F00103636162B630BD00BF00200240A5
:105B00002DE9F3411546164A1369DB03FCD4FFF770
:105B10005BFF20F007002C4646194F192B1B9D42B6
:105B2000A6EB040802D802B0BDE8F081082C22469A
:105B3000A7EB040128BF082268460DF09DFA072C48
:105B400006D8C4F10802FF210DEB04000DF008FB9C
:105B5000DDE900234046FFF7B5FF083CDEE700BF64
:105B600000200240F7B56FF00306104C031D361AF3
:105B70000844F218914201D803B0F0BD6268D20720
:105B8000FCD5A2680192626812F0660F02D0012073
:105B900011F076F801AD1A1F8242EDD015F8017BA5
:105BA00002F8017B9A42F7D10433E2E7000806507D
:105BB0001D2893BF024B00EB80004000185C70472B
:105BC00000000010014610B5C0F30740FFF7F0FFDA
:105BD0000246C1F30720FFF7EBFF0446C8B2FFF708
:105BE000E7FF642358434FF080415A43000A634360
:105BF000C0F57A701B0A8863C3F57A734FF4C060EE
:105C0000B2FBF0F2C2F57A72CA630B6410BD4FF0BA
:105C100090431869C04300F001007047014B1870B1
:105C2000704700BF18000020014801F0BBBD00BF55
:105C3000884A0020034B044A5B6A12685A2000FB22
:105C400002307047001000400400002008B50B4BE4
:105C50005A695A610A4B1A680A4B9A420DD1FFF7EA
:105C6000E9FF09490A68801A192803D9FFF7E2FFFA
:105C7000064B1860FFF7DEFF086008BD0004014016
:105C8000200000100F5C00080C0000201000002015
:105C900038B5204B00221A611F4A13680133136084
:105CA000FFF7C8FF1D4B1B68C01A5A2805D91C4BAB
:105CB000186810B140B204F071FB1A4B1A681A4B05
:105CC0009A421CD1002001F097FB00BB012001F09B
:105CD00093FB051C18BF0125144CFFF7ABFF22688E
:105CE000801A19280BD912490A7822B91DB1FFF779
:105CF000A1FF104B1860FFF79DFF20600D700E4B49
:105D00001B68012B05D1BDE8384000F051BD0125CD
:105D1000E2E738BD0010004004000020140000201D
:105D200008000020200000107F5D00080C0000200B
:105D30005A000020100000200000002038B5044662
:105D400072B6FFF777FF064B186062B6054D2CB1AF
:105D50002B68A34202D060B204F020FB2C6038BD57
:105D6000140000200800002010B50146FFF762FF74
:105D70000446FFF75FFF001B8842FAD310BD08B549
:105D8000002001F039FB68B15F20FFF7EDFF002034
:105D900001F032FB60B9012001F02EFB003018BF8A
:105DA000012004E0012001F027FB0028ECD108BD10
:105DB0000120FCE7BFF34F8F0549064BCA6802F488
:105DC000E0621343CB60BFF34F8F00BFFDE700BF1E
:105DD00000ED00E00400FA0510B501F023FB044CCF
:105DE00020B101F0B5FA034B236010BD024BFBE775
:105DF000200000107F5D00080F5C0008044BD3E911
:105E00000802044B9A420CBFC0F3400000207047C8
:105E100000880308791E55AA10B50C4CADF5006D2D
:105E200021464FF4006268460DF026F9089B712068
:105E300043F002030893FFF71DFE4FF4006269462A
:105E40002046FFF75DFE0DF5006D10BD00880308CC
:105E5000014B1868704700BF00000020024B1B7800
:105E60000BB9FFF7DBBB70475900002000000000B2
:105E7000F0B5012091B0FFF741FD01F0D3FA3A4CA3
:105E800010B901F0EFF820602368384C012B50D195
:105E90002370374B374A1A60374B5A6A374B9A424E
:105EA0003CD0374B34491B6ADBB2AA2B4FF020029F
:105EB000684619BF28A7D7E9006729A7D7E900676F
:105EC0000DF0DAF87120FFF7D5FD202269462A4847
:105ED000FFF716FE2B4B08AA03F1200C1546186895
:105EE0005968144603C4083363452246F7D120227B
:105EF000694628460DF05FF918BB234B23481C88E0
:105F000000232246FFF7DEFD214922462148FFF704
:105F1000F7FD32463B462048FFF7D4FD0020FFF74F
:105F200061FDFFF79BFF04F003FA06F06BFC11B074
:105F3000F0BD0020FFF7E2FC00232370FFF74CFFC9
:105F4000AAE7164B11481C8800232246FFF7BAFD2A
:105F500022461349DAE700BF02000000791E55AA65
:105F600000000000791E55AA000000205900002002
:105F7000200000100F5C000800880308791E55AA55
:105F8000002002408B800108AC83010828880308A8
:105F9000BD8001083088030820880308B686010800
:105FA000AE83010810B5044600F09CFA18B12046F3
:105FB00000F078FA402010BD08B5402200210948C1
:105FC0000DF0CEF80748FFF7EDFF002808DD054883
:105FD00004F04CFA91284FF0FF3018BF002008BDA4
:105FE0000020FCE71900002038B50446FFF722FE28
:105FF000084D0444FFF71EFE844209D30120FFF739
:10600000B3FEFFF7D9FF20B92B6898470028F1D1DC
:10601000002038BD20000010054902460B8803F01F
:106020003003302BFAD040238121024803F047B8D7
:10603000046800406C470020034B0A221A60034B9F
:1060400000221A60704700BF640000206800002032
:1060500038B5204B204C1B689847204A21681368AC
:1060600039B3013B9D1E0C2D136007D9B1FA81F1A4
:1060700049090F2B21601ED90F231360184C236888
:10608000EBB1FFF7D7FD17490B68C01A78280FD975
:10609000FFF7D0FD144B08601868421C10F0010097
:1060A00018BF70201A60FFF78DFD2368013B236045
:1060B00038BD0133D6E7002BE0D10123DDE71368BB
:1060C000DA0020B11046BDE83840FFF77BBDD802AA
:1060D000F9E700BF2000001060000020240000103D
:1060E00064000020680000206C00002010B5044609
:1060F0007F20FFF7BFFC2146D0220648FFF700FDB6
:106100007E20FFF7B7FC2146D0220348BDE81040AF
:10611000FFF7F6BC00F8030800F003081FB50446BB
:10612000D0220E490CF0A8FF2378A52B10D0102206
:106130000B4968460CF0A0FF9DF80030A52B0AD152
:10614000D022074920460CF097FF2046FFF7CEFFEC
:10615000012004B010BD0020FBE700BF00F80308D9
:1061600000F0030830B5424D2B685A1C85B0044638
:1061700035D002930023039344B9012101A8FFF70E
:10618000F1FC9DF8044004F00F0401340021039A4F
:106190000D46AB0003F1006303F57A331B68581C0E
:1061A00028D101B10392DDE902325ABB1B0201334F
:1061B0007D200393FFF75EFC042203A92D48FFF71F
:1061C0009FFC029B7C2001330293FFF753FC28487D
:1061D000042202A9FFF794FC039805B030BD012307
:1061E0007C200293FFF746FC042202A92846FFF711
:1061F00087FCBFE70235B5F5007F1A464FF0010175
:10620000C7D1CFE7B4F5807F98BFA4180394240AC0
:106210009C4208D97C200294FFF72CFC042202A99E
:106220001348FFF76DFCB5F5007F0FD1039B1B0AE8
:1062300001337C200293FFF71DFC042202A90C48C5
:10624000FFF75EFC7D20FFF715FC002505F10070CF
:1062500000F57A400422800003A9FFF751FC064BA9
:1062600003981A68904200D1FEE71860B5E700BFB6
:1062700000E0030800E803085C000020024B1B68F4
:106280000BB100F09FBE704700000020F8B5214B15
:1062900019680129054638D01F4B1B78002B36D1D1
:1062A0001E4C236823BB1E481E4EFFF78BFCFFF7D6
:1062B000C1FC2F18FFF7BEFC87420AD30120FFF76D
:1062C00053FDFFF779FE0146F8B933689847002877
:1062D000F0D02846FFF788FE0146B0B92368A3B185
:1062E000FFF7A8FC2368C01AB0F5FA6F0DD206E0DC
:1062F000FFF7A0FC2368C01AB0F5FA6FD3D2284686
:10630000FFF772FE0023236001210846F8BD022139
:10631000FBE700BF00000020180000201000002054
:106320002035FF002000001008B5FFF71BFC0120FE
:1063300008BD10B5722420460134E4B2FFF79AFB81
:106340007C2CF8D110BD322070470346312B084613
:106350000FD80522B3FBF2F202F5803102EB820284
:106360009B1A40F299127231534303EBC1210CF096
:1063700083BE7047F0B53128ADF6040D06460F46D2
:1063800022D80524B0FBF4F404F580307230C50245
:106390004FF40062294668460CF02FFE04EB84009F
:1063A00040F299126B46301A394602FB00300CF06D
:1063B00024FE04F17200C0B2FFF75CFB4FF40062F0
:1063C00069462846FFF79CFB0DF6040DF0BDFFF76C
:1063D000D1BF10B5E8B0044640F29912FF2101A8E0
:1063E0000CF0BEFE01A92046FFF7C4FF68B010BD47
:1063F0000A4B4CF6CC421A6045F255521A60002204
:106400005A6040F6FF721A614FF4FA629A60DA68D5
:106410005207FCD14AF6AA221A60704700300040A9
:106420000B4B10B50246044603F1100153F8040B60
:1064300042F8040B8B42F9D1064B1B6813B1892338
:10644000237010BD00F0EEFF0028FAD09823F7E784
:10645000AC80010800000020FEE70000F8B50E4DFA
:106460002E68632E014613DC0C4F0D483C68402219
:1064700000EB84100CF000FE0134632CC8BF002335
:1064800006F10106D4BF3C603B602E600020F8BDE1
:106490004FF0FF30FBE700BF7400002078190020A8
:1064A0007800002010B50C4C0C4B2168402203EB07
:1064B00081110CF0E1FD0A4B1A68002A09DD216800
:1064C00001316329C8BF0021013A21601A60002010
:1064D00010BD4FF0FF30FBE7700000207800002077
:1064E00074000020014B1868704700BF7400002042
:1064F0000048704700880308014B188D704700BFA3
:10650000008803081D4B1E491A8D10B504460CF077
:10651000B3FD0A221B4904F2C6200CF04CFE60BBFE
:10652000FFF796FCA8B1892384F8A232164B04F138
:10653000AC0203F1140153F8040B42F8040B8B4234
:10654000F9D11249422204F2C520BDE810400CF0F6
:1065500054BD00F067FF80B1982384F8A2320C4B41
:1065600004F1AC0203F1140153F8040B42F8040BDC
:106570008B42F9D142220749E5E710BD00880308A4
:1065800030880308B8860108C3860108D886010848
:106590001B8701083087010810F0040F0CBF01238E
:1065A0000223020748BF013318467047034B0022FD
:1065B0001A6020221A7001229A7070477C190020FC
:1065C00070B5114D2B7813F0020F04462E4605D0FE
:1065D0000A2000F081FD2870012070BDFFF72AFB22
:1065E0000444FFF727FB844201D80020F5E70A2086
:1065F00000F072FD10F0060F30704FF00100ECD18A
:10660000FFF7B2FBEDE700BF8E2100202DE9F0433C
:106610001F46002389B03B60064688469146FFF737
:1066200009FB174C0644FFF705FB864201D8002002
:106630001FE025786A0704D40A2000F04DFD0546C6
:1066400020700C2000F048FD43B2002B14DD6B07D6
:1066500012D500F01F042146684600F06DFD4C4540
:106660002246A8BF4A463A60694640460CF0C5FC3F
:10667000012009B0BDE8F0830120FFF775FBD2E7E8
:106680008E21002038B50D460446042000F0C0FDE0
:10669000202D2946204628BF202100F063FD082038
:1066A000BDE8384000F0B4BD70B588B01E4600F0BB
:1066B0000F038DF80030124B1B788DF8013000234A
:1066C00014468DF80230FFF767FF054624B119B173
:1066D000224668440CF091FC631908AA0234134462
:1066E0002C44320AE1B2684603F8202C03F81F6CF0
:1066F000FFF7C8FF0120FFF763FF08B070BD00BFC0
:106700008D2100201D2A01D8FFF7CEBF0020704741
:1067100000220B461146FFF7C7BF6123FF29037014
:1067200086BF00234370417070470000034A002376
:106730001370034A1370034A1360704781190020D5
:10674000801900208419002070B5164D2C788AB06D
:1067500034BB154E337863B9144B02211B88ADF856
:10676000083002A80124FFF78DFF347020460AB0DC
:1067700070BD01AB202202A9FFF748FF10B9012329
:106780002B70F3E7019B022BF9D19DF80830F22B17
:10679000F5D19DF80930012BF1D134700446E5E7BD
:1067A0000024E3E780190020811900207387010885
:1067B00038B5084D2C685CB1FFF73CFA04F59674C7
:1067C000844205D80A20FFF7BFFFFFF733FA28609D
:1067D00038BD00BF841900201FB5194B00F00F020F
:1067E00000095A7024D110221A7042F20E23ADF81B
:1067F0000030C0238DF80230124B1A68CDF8032008
:106800005A68CDF8072068461A899B7AADF80B20A4
:106810000E218DF80D30FFF735FF0A20FFF7D0FE6F
:1068200058B9022000F0F4FC012005B05DF804FB2B
:1068300001280CBF18222022D6E70020F5E700BF70
:106840007C1900209787010830B589B004461E22C4
:106850000D460DF1020000210CF082FC2046FFF7EE
:106860009BFE0D4A9378B3FA83F35B0993700B4B4D
:1068700004F00F0444F0A0041B788DF8004001469A
:106880008DF801301DB944F010048DF800406846C1
:10689000FFF7F8FE09B030BD7C1900208D210020E3
:1068A0002DE9F04F95B01446884600F00F07FFF72A
:1068B00073FE1F2C0646DFF810911DDC99F800507E
:1068C0001E2200210DF12E000CF04AFC8DF82C70D8
:1068D0008DF82D5044B1B8F1000F05D00BAB224616
:1068E000414698190CF089FB3119C9B20BA8FFF782
:1068F000C9FE15B0BDE8F08FC0F12003002500935C
:106900000BABAA4603EB000B009A8DF82C70631BAF
:106910009342A8BF134699F800208DF82D2008EB6C
:1069200005011A46584601938DF82EA00CF065FB20
:10693000019B1D44A542B8BF9DF82C2006EB030126
:10694000B8BF42F010020BA8C9B2B8BF8DF82C2016
:10695000FFF798FE0520FFF733FE0028C9D09DF809
:106960002C30D8062AD52022002103A80CF0F8FBF1
:1069700002AB202203A96420FFF748FE0028B8D00C
:106980009DF80C3003F0E202A22AB2D1D90604D558
:1069900001211846FFF758FFABE718460193FFF7B0
:1069A000FBFD029A9042A4D19DF82C20019B5A40F5
:1069B000D20703D403F0F603A22B9AD0A54287F0A6
:1069C0000107A1DB95E700BF8D210020F8B5144D2C
:1069D00007460020286013480124FF2A0E46047051
:1069E00000DD2BB131463846BDE8F840FFF758BF0F
:1069F000A2F1FD040C482C60FD220CF03DFB214669
:106A00000A48FFF78AFE3846FF220749FFF748FF8A
:106A10002A68054806F1FD01BDE8F8400CF02CBBE2
:106A2000882100208C21002088190020851A002050
:106A300010B40C469C42114612DC127802F0F002AF
:106A4000A02A09D1042C0FDD9C422246A8BF1A4679
:106A50005DF8044B0CF0AFBB9C4205D12246F7E732
:106A60000A205DF8044B70470B20FAE738B5144A4A
:106A7000082304460D46FFF7DBFF18B90520114B2C
:106A8000D87038BD0723104A29462046FFF7D0FFAB
:106A900008B90120F3E702230C4A29462046FFF7F4
:106AA000C7FF08B90320EAE70223094A294620461E
:106AB000FFF7BEFF08B90420E1E70020E1E700BFCF
:106AC000758701087C1900207E870108AF870108BF
:106AD000B28701082DE9F0411378ADF5805D13F020
:106AE0007F0782B005460E46144604D04FF4DC41C1
:106AF000FFF70EFE8EE05378102B00F0D78012D8EF
:106B0000022B00F0BE80032B00F09080012B10D1EF
:106B1000944BDB78052B0CD19388402B00F09480AC
:106B20004FF4CE41E4E7B02B00F0F68004D8A42B5C
:106B300062D04FF4DA411EE0C02B16D0EE2BF8D114
:106B40009288042AF5D18849D4F806000CF033FB6A
:106B50000028EED14FF410412846FFF7D9FD14204C
:106B6000FFF702F9FFF726F9FEE793780BB9D37820
:106B70001BB146F686212846BAE7D2F80A607B4B5D
:106B800036F480721C68984608D0A64206D9FF2CBD
:106B900000F2868004F5CE4189B2ECE7FF220021A5
:106BA00001A80CF0DDFA002E08BFFD26A6423746EC
:106BB00028BF27463A466E4901A80CF01EFAA642A5
:106BC00018D201ABE11BD819FFF7A7FD02223A4406
:106BD00001A92846FFF764FED8F800206448D21BBC
:106BE000C119C8F800200DF5805D02B0BDE8F04184
:106BF0000CF042BA0022EAE79188D2F80600FFF7CB
:106C000035FF05280BD14FF4104306225949284679
:106C1000FFF778FD0DF5805D02B0BDE8F08110B1A1
:106C20004FF41041A7E746F68221A4E74D4BDB78ED
:106C3000052B7FF47EAF9288D4F8061002AF01AB2B
:106C4000304603F071FA14E0FFF702F9012801D190
:106C5000FEF7D8FC01ABA288D4F80610304603F04A
:106C600063FAFFF7F5F8012802AF02D10020FEF722
:106C7000C9FCA37BB7F8FE2F01A92846FFF7A6FEA3
:106C8000C8E7384BD87805287FF453AFD4F80610FE
:106C9000928891F8403041339A4204D0FFF764F86B
:106CA0004FF4CE4167E702AF01ABC9E72D4BDB786C
:106CB000052B02D04FF4DA411AE70120FEF7AEFFB0
:106CC00001A805F093FD01AAA188D4F8060006F0FA
:106CD000D7F98046384602AEFEF7A0FFB8F1000FA4
:106CE00018D1B6F8FE2F01A9F01E0CF0C5F9B6F8C0
:106CF000FE3F0333A6F8FE3FB6F8FE2F06F8048CDD
:106D000001AB1344902103F8021C002103F8011C7D
:106D1000A37BB1E70323EDE7124BD2F80A20DB781F
:106D2000032B92B204D0042B11D046F68221DFE669
:106D3000531E9BB20F2B28BF0F220F494FF4104355
:106D4000D2B2FFF7DFFC0A20FFF73AFC62E7531EDE
:106D50009BB2142B28BF14224FF41043D2B2074920
:106D6000EFE700BF7C190020AA87010888210020D6
:106D700088190020A38701088887010828000010CF
:106D80002DE9F043054685B000782B4C0E46FFF701
:106D900003FC237880462F1833B17B78C02B1FBFAC
:106DA000264A002313602370A6EB08016A46384682
:106DB00002F014FF014628B12878FFF7A9FC05B0BE
:106DC000BDE8F083237883BB15F80830DFF86C90BA
:106DD000DB06D9F8004015D53119B1F5006F02D99D
:106DE0004FF4CE41E8E7BDF804601548DDF8061021
:106DF0002044324634440CF03FF9C9F800404FF4C7
:106E00001041D9E78CB1DDF80610BDF8042008194F
:106E10000CF032F922460A49DDF806000CF02CF994
